{
  "address": "0x24f204aF1D1e4e4F47c2E632942936110D0A4333",
  "abi": [
    {
      "inputs": [
        {
          "internalType": "address",
          "name": "_aave",
          "type": "address"
        },
        {
          "internalType": "address",
          "name": "_compound",
          "type": "address"
        },
        {
          "internalType": "address",
          "name": "_uniswap",
          "type": "address"
        },
        {
          "internalType": "address",
          "name": "_spendPermissionManager",
          "type": "address"
        }
      ],
      "stateMutability": "nonpayable",
      "type": "constructor"
    },
    {
      "anonymous": false,
      "inputs": [
        {
          "indexed": true,
          "internalType": "address",
          "name": "user",
          "type": "address"
        },
        {
          "indexed": true,
          "internalType": "uint256",
          "name": "planId",
          "type": "uint256"
        },
        {
          "indexed": false,
          "internalType": "uint256",
          "name": "amount",
          "type": "uint256"
        }
      ],
      "name": "DepositExecuted",
      "type": "event"
    },
    {
      "anonymous": false,
      "inputs": [
        {
          "indexed": true,
          "internalType": "address",
          "name": "protocol",
          "type": "address"
        },
        {
          "indexed": false,
          "internalType": "uint256",
          "name": "amount",
          "type": "uint256"
        }
      ],
      "name": "FundsAllocated",
      "type": "event"
    },
    {
      "anonymous": false,
      "inputs": [
        {
          "indexed": true,
          "internalType": "address",
          "name": "user",
          "type": "address"
        },
        {
          "indexed": true,
          "internalType": "uint256",
          "name": "planId",
          "type": "uint256"
        }
      ],
      "name": "PlanCancelled",
      "type": "event"
    },
    {
      "anonymous": false,
      "inputs": [
        {
          "indexed": true,
          "internalType": "address",
          "name": "user",
          "type": "address"
        },
        {
          "indexed": true,
          "internalType": "uint256",
          "name": "planId",
          "type": "uint256"
        }
      ],
      "name": "PlanPaused",
      "type": "event"
    },
    {
      "anonymous": false,
      "inputs": [
        {
          "indexed": true,
          "internalType": "address",
          "name": "user",
          "type": "address"
        },
        {
          "indexed": true,
          "internalType": "uint256",
          "name": "planId",
          "type": "uint256"
        }
      ],
      "name": "PlanResumed",
      "type": "event"
    },
    {
      "anonymous": false,
      "inputs": [
        {
          "indexed": true,
          "internalType": "address",
          "name": "user",
          "type": "address"
        },
        {
          "indexed": true,
          "internalType": "uint256",
          "name": "planId",
          "type": "uint256"
        },
        {
          "indexed": false,
          "internalType": "uint256",
          "name": "monthlyAmount",
          "type": "uint256"
        }
      ],
      "name": "SIPCreated",
      "type": "event"
    },
    {
      "inputs": [],
      "name": "aave",
      "outputs": [
        {
          "internalType": "address",
          "name": "",
          "type": "address"
        }
      ],
      "stateMutability": "view",
      "type": "function"
    },
    {
      "inputs": [
        {
          "internalType": "uint256",
          "name": "planId",
          "type": "uint256"
        }
      ],
      "name": "cancelPlan",
      "outputs": [],
      "stateMutability": "nonpayable",
      "type": "function"
    },
    {
      "inputs": [],
      "name": "compound",
      "outputs": [
        {
          "internalType": "address",
          "name": "",
          "type": "address"
        }
      ],
      "stateMutability": "view",
      "type": "function"
    },
    {
      "inputs": [
        {
          "internalType": "uint256",
          "name": "planId",
          "type": "uint256"
        },
        {
          "internalType": "uint256",
          "name": "monthlyAmount",
          "type": "uint256"
        },
        {
          "internalType": "uint8",
          "name": "aavePercent",
          "type": "uint8"
        },
        {
          "internalType": "uint8",
          "name": "compoundPercent",
          "type": "uint8"
        },
        {
          "internalType": "uint8",
          "name": "uniswapPercent",
          "type": "uint8"
        }
      ],
      "name": "createSIPPlan",
      "outputs": [],
      "stateMutability": "nonpayable",
      "type": "function"
    },
    {
      "inputs": [
        {
          "internalType": "uint256",
          "name": "planId",
          "type": "uint256"
        }
      ],
      "name": "depositDirect",
      "outputs": [],
      "stateMutability": "payable",
      "type": "function"
    },
    {
      "inputs": [
        {
          "internalType": "address",
          "name": "user",
          "type": "address"
        },
        {
          "internalType": "uint256",
          "name": "planId",
          "type": "uint256"
        },
        {
          "components": [
            {
              "internalType": "address",
              "name": "account",
              "type": "address"
            },
            {
              "internalType": "address",
              "name": "spender",
              "type": "address"
            },
            {
              "internalType": "address",
              "name": "token",
              "type": "address"
            },
            {
              "internalType": "uint160",
              "name": "allowance",
              "type": "uint160"
            },
            {
              "internalType": "uint48",
              "name": "period",
              "type": "uint48"
            },
            {
              "internalType": "uint48",
              "name": "start",
              "type": "uint48"
            },
            {
              "internalType": "uint48",
              "name": "end",
              "type": "uint48"
            },
            {
              "internalType": "uint256",
              "name": "salt",
              "type": "uint256"
            },
            {
              "internalType": "bytes",
              "name": "extraData",
              "type": "bytes"
            }
          ],
          "internalType": "struct ISpendPermissionManager.SpendPermission",
          "name": "spendPermission",
          "type": "tuple"
        },
        {
          "internalType": "bytes",
          "name": "signature",
          "type": "bytes"
        },
        {
          "internalType": "uint160",
          "name": "amount",
          "type": "uint160"
        }
      ],
      "name": "executeDeposit",
      "outputs": [],
      "stateMutability": "nonpayable",
      "type": "function"
    },
    {
      "inputs": [
        {
          "internalType": "address",
          "name": "user",
          "type": "address"
        },
        {
          "internalType": "uint256",
          "name": "planId",
          "type": "uint256"
        }
      ],
      "name": "getPlan",
      "outputs": [
        {
          "components": [
            {
              "internalType": "address",
              "name": "user",
              "type": "address"
            },
            {
              "internalType": "uint256",
              "name": "planId",
              "type": "uint256"
            },
            {
              "internalType": "uint256",
              "name": "monthlyAmount",
              "type": "uint256"
            },
            {
              "components": [
                {
                  "internalType": "uint8",
                  "name": "aavePercent",
                  "type": "uint8"
                },
                {
                  "internalType": "uint8",
                  "name": "compoundPercent",
                  "type": "uint8"
                },
                {
                  "internalType": "uint8",
                  "name": "uniswapPercent",
                  "type": "uint8"
                }
              ],
              "internalType": "struct LumoContract.Strategy",
              "name": "strategy",
              "type": "tuple"
            },
            {
              "internalType": "uint256",
              "name": "totalDeposited",
              "type": "uint256"
            },
            {
              "internalType": "uint256",
              "name": "lastDepositTime",
              "type": "uint256"
            },
            {
              "internalType": "uint256",
              "name": "createdAt",
              "type": "uint256"
            },
            {
              "internalType": "bool",
              "name": "active",
              "type": "bool"
            }
          ],
          "internalType": "struct LumoContract.SIPPlan",
          "name": "",
          "type": "tuple"
        }
      ],
      "stateMutability": "view",
      "type": "function"
    },
    {
      "inputs": [
        {
          "internalType": "address",
          "name": "user",
          "type": "address"
        }
      ],
      "name": "getUserPlanIds",
      "outputs": [
        {
          "internalType": "uint256[]",
          "name": "",
          "type": "uint256[]"
        }
      ],
      "stateMutability": "view",
      "type": "function"
    },
    {
      "inputs": [],
      "name": "owner",
      "outputs": [
        {
          "internalType": "address",
          "name": "",
          "type": "address"
        }
      ],
      "stateMutability": "view",
      "type": "function"
    },
    {
      "inputs": [
        {
          "internalType": "uint256",
          "name": "planId",
          "type": "uint256"
        }
      ],
      "name": "pausePlan",
      "outputs": [],
      "stateMutability": "nonpayable",
      "type": "function"
    },
    {
      "inputs": [
        {
          "internalType": "uint256",
          "name": "planId",
          "type": "uint256"
        }
      ],
      "name": "resumePlan",
      "outputs": [],
      "stateMutability": "nonpayable",
      "type": "function"
    },
    {
      "inputs": [
        {
          "internalType": "address",
          "name": "_spendPermissionManager",
          "type": "address"
        }
      ],
      "name": "setSpendPermissionManager",
      "outputs": [],
      "stateMutability": "nonpayable",
      "type": "function"
    },
    {
      "inputs": [],
      "name": "spendPermissionManager",
      "outputs": [
        {
          "internalType": "contract ISpendPermissionManager",
          "name": "",
          "type": "address"
        }
      ],
      "stateMutability": "view",
      "type": "function"
    },
    {
      "inputs": [
        {
          "internalType": "address",
          "name": "newOwner",
          "type": "address"
        }
      ],
      "name": "transferOwnership",
      "outputs": [],
      "stateMutability": "nonpayable",
      "type": "function"
    },
    {
      "inputs": [],
      "name": "uniswap",
      "outputs": [
        {
          "internalType": "address",
          "name": "",
          "type": "address"
        }
      ],
      "stateMutability": "view",
      "type": "function"
    },
    {
      "inputs": [
        {
          "internalType": "address",
          "name": "",
          "type": "address"
        },
        {
          "internalType": "uint256",
          "name": "",
          "type": "uint256"
        }
      ],
      "name": "userPlanIds",
      "outputs": [
        {
          "internalType": "uint256",
          "name": "",
          "type": "uint256"
        }
      ],
      "stateMutability": "view",
      "type": "function"
    },
    {
      "inputs": [
        {
          "internalType": "address",
          "name": "",
          "type": "address"
        },
        {
          "internalType": "uint256",
          "name": "",
          "type": "uint256"
        }
      ],
      "name": "userPlans",
      "outputs": [
        {
          "internalType": "address",
          "name": "user",
          "type": "address"
        },
        {
          "internalType": "uint256",
          "name": "planId",
          "type": "uint256"
        },
        {
          "internalType": "uint256",
          "name": "monthlyAmount",
          "type": "uint256"
        },
        {
          "components": [
            {
              "internalType": "uint8",
              "name": "aavePercent",
              "type": "uint8"
            },
            {
              "internalType": "uint8",
              "name": "compoundPercent",
              "type": "uint8"
            },
            {
              "internalType": "uint8",
              "name": "uniswapPercent",
              "type": "uint8"
            }
          ],
          "internalType": "struct LumoContract.Strategy",
          "name": "strategy",
          "type": "tuple"
        },
        {
          "internalType": "uint256",
          "name": "totalDeposited",
          "type": "uint256"
        },
        {
          "internalType": "uint256",
          "name": "lastDepositTime",
          "type": "uint256"
        },
        {
          "internalType": "uint256",
          "name": "createdAt",
          "type": "uint256"
        },
        {
          "internalType": "bool",
          "name": "active",
          "type": "bool"
        }
      ],
      "stateMutability": "view",
      "type": "function"
    },
    {
      "stateMutability": "payable",
      "type": "receive"
    }
  ],
  "transactionHash": "0x9e3c6ce87294135c61a9122c968dcf061f135b01d18023bc66f4266557c93b29",
  "args": [
    "0xF2182c3A96C755E07205B49C2C7B12e6db1f21F9",
    "0x6f42dC74Cc3e75DcAE41aC8690738c86cD503923",
    "0x3598e6e6b02adfd911EB830De01D23aF083AF1A1",
    "0xf85210B21cC50302F477BA56686d2019dC9b67Ad"
  ],
  "numDeployments": 2,
  "solcInputHash": "22333457be08516d34e5470c2a566d60",
  "bytecode": "0x60806040523480156200001157600080fd5b5060405162001b0338038062001b038339810160408190526200003491620000b1565b600280546001600160a01b03199081166001600160a01b039687161790915560038054821694861694909417909355600480548416928516929092179091556006805483169190931617909155600580543392169190911790556200010e565b80516001600160a01b0381168114620000ac57600080fd5b919050565b60008060008060808587031215620000c857600080fd5b620000d38562000094565b9350620000e36020860162000094565b9250620000f36040860162000094565b9150620001036060860162000094565b905092959194509250565b6119e5806200011e6000396000f3fe6080604052600436106101025760003560e01c80638da5cb5b11610095578063e4b6054011610064578063e4b60540146103a3578063f1e4d3b2146103d0578063f2fde38b146103f0578063f457ae1914610410578063f69e20461461043057600080fd5b80638da5cb5b1461031557806390840cd514610335578063b35876e714610355578063cff979a61461037557600080fd5b806380d6664c116100d157806380d6664c146101ad578063819faf7b146101cd578063831820f0146101ed57806383589fde146102f557600080fd5b80632681f7e41461010e57806352cd407f1461014b578063538389221461016d57806368c2fe991461018057600080fd5b3661010957005b600080fd5b34801561011a57600080fd5b5060045461012e906001600160a01b031681565b6040516001600160a01b0390911681526020015b60405180910390f35b34801561015757600080fd5b5061016b61016636600461144e565b610450565b005b61016b61017b36600461151a565b6107b4565b34801561018c57600080fd5b506101a061019b366004611533565b610894565b604051610142919061155f565b3480156101b957600080fd5b5061016b6101c836600461151a565b610950565b3480156101d957600080fd5b5060025461012e906001600160a01b031681565b3480156101f957600080fd5b5061028c610208366004611533565b60006020818152928152604080822084529181528190208054600182015460028301548451606081018652600385015460ff808216835261010082048116988301989098526201000090048716958101959095526004840154600585015460068601546007909601546001600160a01b039095169793969295929491939092911688565b604080516001600160a01b0390991689526020808a019890985288810196909652845160ff90811660608a01529685015187166080890152939094015190941660a086015260c085015260e0840192909252610100830152151561012082015261014001610142565b34801561030157600080fd5b5061016b61031036600461151a565b6109f2565b34801561032157600080fd5b5060055461012e906001600160a01b031681565b34801561034157600080fd5b5060065461012e906001600160a01b031681565b34801561036157600080fd5b5061016b61037036600461151a565b610a94565b34801561038157600080fd5b50610395610390366004611533565b610ba7565b604051908152602001610142565b3480156103af57600080fd5b506103c36103be3660046115eb565b610bd8565b604051610142919061160f565b3480156103dc57600080fd5b5061016b6103eb366004611664565b610c44565b3480156103fc57600080fd5b5061016b61040b3660046115eb565b610f95565b34801561041c57600080fd5b5061016b61042b3660046115eb565b611029565b34801561043c57600080fd5b5060035461012e906001600160a01b031681565b6005546001600160a01b031633146104835760405162461bcd60e51b815260040161047a906116bb565b60405180910390fd5b6001600160a01b0386166000908152602081815260408083208884529091529020600781015460ff166104c85760405162461bcd60e51b815260040161047a906116df565b80546001600160a01b038881169116146105145760405162461bcd60e51b815260206004820152600d60248201526c0aae6cae440dad2e6dac2e8c6d609b1b604482015260640161047a565b6001600160a01b03871661052b60208701876115eb565b6001600160a01b0316146105815760405162461bcd60e51b815260206004820152601b60248201527f5065726d697373696f6e206163636f756e74206d69736d617463680000000000604482015260640161047a565b3361059260408701602088016115eb565b6001600160a01b0316146105db5760405162461bcd60e51b815260206004820152601060248201526f0a6e0cadcc8cae440dad2e6dac2e8c6d60831b604482015260640161047a565b600654604051639e16b82f60e01b81526001600160a01b0390911690639e16b82f9061060b90889060040161187d565b602060405180830381865afa158015610628573d6000803e3d6000fd5b505050506040513d601f19601f8201168201806040525081019061064c9190611890565b6106c95760065460405163b9ffc8e160e01b81526001600160a01b039091169063b9ffc8e190610684908890889088906004016118b2565b6020604051808303816000875af11580156106a3573d6000803e3d6000fd5b505050506040513d601f19601f820116820180604052508101906106c79190611890565b505b60065460405163415a973560e01b81526001600160a01b039091169063415a9735906106fb90889086906004016118e2565b600060405180830381600087803b15801561071557600080fd5b505af1158015610729573d6000803e3d6000fd5b5050505061074081836001600160a01b0316611075565b816001600160a01b031681600401600082825461075d9190611922565b90915550504260058201556040516001600160a01b0383811682528791908916907fcf75a80a22cde0edcefe708f860e644c73eb8921aac7890f3bec010eef965f649060200160405180910390a350505050505050565b336000908152602081815260408083208484529091529020600781015460ff166107f05760405162461bcd60e51b815260040161047a906116df565b600034116108305760405162461bcd60e51b815260206004820152600d60248201526c09aeae6e840e6cadcc8408aa89609b1b604482015260640161047a565b61083a8134611075565b3481600401600082825461084e9190611922565b9091555050426005820155604051348152829033907fcf75a80a22cde0edcefe708f860e644c73eb8921aac7890f3bec010eef965f649060200160405180910390a35050565b61089c6113ab565b506001600160a01b038083166000908152602081815260408083208584528252918290208251610100808201855282549095168152600182015481840152600282015481850152835160608181018652600384015460ff8082168452978104881695830195909552620100009094048616948101949094529182019290925260048201546080820152600582015460a0820152600682015460c0820152600790910154909116151560e08201525b92915050565b336000908152602081815260408083208484529091529020600781015460ff1661098c5760405162461bcd60e51b815260040161047a906116df565b80546001600160a01b031633146109b55760405162461bcd60e51b815260040161047a90611935565b60078101805460ff19169055604051829033907f3ee9ca28321072883626157ba61d1c97dbb201875f5b65ab4d78f77fc316a31c90600090a35050565b336000908152602081815260408083208484529091529020600781015460ff16610a2e5760405162461bcd60e51b815260040161047a906116df565b80546001600160a01b03163314610a575760405162461bcd60e51b815260040161047a90611935565b60078101805460ff19169055604051829033907f0f0575314e9a6c84f2bff03b4ceae4b5d4ca0fe92bff1acb153f13e5e36db71f90600090a35050565b3360009081526020818152604080832084845290915290206006810154610af35760405162461bcd60e51b8152602060048201526013602482015272141b185b88191bd95cc81b9bdd08195e1a5cdd606a1b604482015260640161047a565b80546001600160a01b03163314610b1c5760405162461bcd60e51b815260040161047a90611935565b600781015460ff1615610b675760405162461bcd60e51b8152602060048201526013602482015272506c616e20616c72656164792061637469766560681b604482015260640161047a565b60078101805460ff19166001179055604051829033907f64bf4125848d90010c24cc30cdbcb050b80009b859b208313f6259c7dc12d99490600090a35050565b60016020528160005260406000208181548110610bc357600080fd5b90600052602060002001600091509150505481565b6001600160a01b038116600090815260016020908152604091829020805483518184028101840190945280845260609392830182828015610c3857602002820191906000526020600020905b815481526020019060010190808311610c24575b50505050509050919050565b60008411610ca25760405162461bcd60e51b815260206004820152602560248201527f4d6f6e74686c7920616d6f756e74206d75737420626520677265617465722074604482015264068616e20360dc1b606482015260840161047a565b80610cad838561195d565b610cb7919061195d565b60ff16606414610d095760405162461bcd60e51b815260206004820152601860248201527f50657263656e7473206d7573742073756d20746f203130300000000000000000604482015260640161047a565b3360009081526020818152604080832088845290915290206006015415610d685760405162461bcd60e51b8152602060048201526013602482015272506c616e20616c72656164792065786973747360681b604482015260640161047a565b600060405180606001604052808560ff1681526020018460ff1681526020018360ff168152509050604051806101000160405280336001600160a01b03168152602001878152602001868152602001828152602001600081526020016000815260200142815260200160011515815250600080336001600160a01b03166001600160a01b03168152602001908152602001600020600088815260200190815260200160002060008201518160000160006101000a8154816001600160a01b0302191690836001600160a01b03160217905550602082015181600101556040820151816002015560608201518160030160008201518160000160006101000a81548160ff021916908360ff16021790555060208201518160000160016101000a81548160ff021916908360ff16021790555060408201518160000160026101000a81548160ff021916908360ff16021790555050506080820151816004015560a0820151816005015560c0820151816006015560e08201518160070160006101000a81548160ff02191690831515021790555090505060016000336001600160a01b03166001600160a01b0316815260200190815260200160002086908060018154018082558091505060019003906000526020600020016000909190919091505585336001600160a01b03167f1bd96959e90b965ecd58bac046f8d20f293cf639656f8987da258ccffc32436187604051610f8591815260200190565b60405180910390a3505050505050565b6005546001600160a01b03163314610fbf5760405162461bcd60e51b815260040161047a906116bb565b6001600160a01b0381166110075760405162461bcd60e51b815260206004820152600f60248201526e496e76616c6964206164647265737360881b604482015260640161047a565b600580546001600160a01b0319166001600160a01b0392909216919091179055565b6005546001600160a01b031633146110535760405162461bcd60e51b815260040161047a906116bb565b600680546001600160a01b0319166001600160a01b0392909216919091179055565b600382015460009060649061108d9060ff1684611976565b611097919061198d565b60038401549091506000906064906110b790610100900460ff1685611976565b6110c1919061198d565b60038501549091506000906064906110e29062010000900460ff1686611976565b6110ec919061198d565b905082156111d1576002546040516000916001600160a01b03169085908381818185875af1925050503d8060008114611141576040519150601f19603f3d011682016040523d82523d6000602084013e611146565b606091505b505090508061118d5760405162461bcd60e51b815260206004820152601360248201527210585d994819195c1bdcda5d0819985a5b1959606a1b604482015260640161047a565b6002546040518581526001600160a01b03909116907f870f86672db2c7b197484fa0218e97fe38eb7c89fd39ed2c4c910734c66182f89060200160405180910390a2505b81156112be576003546040516000916001600160a01b03169084908381818185875af1925050503d8060008114611224576040519150601f19603f3d011682016040523d82523d6000602084013e611229565b606091505b505090508061127a5760405162461bcd60e51b815260206004820152601760248201527f436f6d706f756e64206465706f736974206661696c6564000000000000000000604482015260640161047a565b6003546040518481526001600160a01b03909116907f870f86672db2c7b197484fa0218e97fe38eb7c89fd39ed2c4c910734c66182f89060200160405180910390a2505b80156113a4576004546040516000916001600160a01b03169083908381818185875af1925050503d8060008114611311576040519150601f19603f3d011682016040523d82523d6000602084013e611316565b606091505b50509050806113605760405162461bcd60e51b8152602060048201526016602482015275155b9a5cddd85c0819195c1bdcda5d0819985a5b195960521b604482015260640161047a565b6004546040518381526001600160a01b03909116907f870f86672db2c7b197484fa0218e97fe38eb7c89fd39ed2c4c910734c66182f89060200160405180910390a2505b5050505050565b60405180610100016040528060006001600160a01b0316815260200160008152602001600081526020016114026040518060600160405280600060ff168152602001600060ff168152602001600060ff1681525090565b81526020016000815260200160008152602001600081526020016000151581525090565b6001600160a01b038116811461143b57600080fd5b50565b803561144981611426565b919050565b60008060008060008060a0878903121561146757600080fd5b863561147281611426565b955060208701359450604087013567ffffffffffffffff8082111561149657600080fd5b90880190610120828b0312156114ab57600080fd5b909450606088013590808211156114c157600080fd5b818901915089601f8301126114d557600080fd5b8135818111156114e457600080fd5b8a60208285010111156114f657600080fd5b60208301955080945050505061150e6080880161143e565b90509295509295509295565b60006020828403121561152c57600080fd5b5035919050565b6000806040838503121561154657600080fd5b823561155181611426565b946020939093013593505050565b81516001600160a01b0316815260208083015190820152604080830151908201526060808301516101408301916115b89084018260ff815116825260ff602082015116602083015260ff60408201511660408301525050565b50608083015160c083015260a083015160e083015260c083015161010083015260e0830151151561012083015292915050565b6000602082840312156115fd57600080fd5b813561160881611426565b9392505050565b6020808252825182820181905260009190848201906040850190845b818110156116475783518352928401929184019160010161162b565b50909695505050505050565b803560ff8116811461144957600080fd5b600080600080600060a0868803121561167c57600080fd5b853594506020860135935061169360408701611653565b92506116a160608701611653565b91506116af60808701611653565b90509295509295909350565b6020808252600a908201526927b7363c9037bbb732b960b11b604082015260600190565b6020808252600e908201526d27379030b1ba34bb3290383630b760911b604082015260600190565b803565ffffffffffff8116811461144957600080fd5b6000808335601e1984360301811261173457600080fd5b830160208101925035905067ffffffffffffffff81111561175457600080fd5b80360382131561176357600080fd5b9250929050565b81835281816020850137506000828201602090810191909152601f909101601f19169091010190565b600061012082356117a381611426565b6001600160a01b031684526117ba6020840161143e565b6001600160a01b031660208501526117d46040840161143e565b6001600160a01b031660408501526117ee6060840161143e565b6001600160a01b0316606085015261180860808401611707565b65ffffffffffff16608085015261182160a08401611707565b65ffffffffffff1660a085015261183a60c08401611707565b65ffffffffffff1660c085015260e083810135908501526101006118608185018561171d565b8383880152611872848801828461176a565b979650505050505050565b6020815260006116086020830184611793565b6000602082840312156118a257600080fd5b8151801515811461160857600080fd5b6040815260006118c56040830186611793565b82810360208401526118d881858761176a565b9695505050505050565b6040815260006118f56040830185611793565b905060018060a01b03831660208301529392505050565b634e487b7160e01b600052601160045260246000fd5b8082018082111561094a5761094a61190c565b6020808252600e908201526d2737ba10383630b71037bbb732b960911b604082015260600190565b60ff818116838216019081111561094a5761094a61190c565b808202811582820484141761094a5761094a61190c565b6000826119aa57634e487b7160e01b600052601260045260246000fd5b50049056fea264697066735822122002051417ac0adc0126bc9d7487e6ec5e66cc20c44212d525df2f200f6d58d58464736f6c63430008140033",
  "devdoc": {
    "details": "Uses Coinbase's SpendPermissionManager for automated deposits",
    "kind": "dev",
    "methods": {
      "createSIPPlan(uint256,uint256,uint8,uint8,uint8)": {
        "details": "This is called by the frontend when user confirms their plan",
        "params": {
          "aavePercent": "Percentage allocation to Aave",
          "compoundPercent": "Percentage allocation to Compound",
          "monthlyAmount": "Monthly investment amount in wei",
          "planId": "The database plan ID for reference",
          "uniswapPercent": "Percentage allocation to Uniswap"
        }
      },
      "depositDirect(uint256)": {
        "details": "Alternative method for direct deposits without spend permissions",
        "params": {
          "planId": "The plan ID to fund"
        }
      },
      "executeDeposit(address,uint256,(address,address,address,uint160,uint48,uint48,uint48,uint256,bytes),bytes,uint160)": {
        "details": "Called by the server wallet (spender) using the stored spend permission",
        "params": {
          "amount": "Amount to deposit in this execution",
          "planId": "The plan ID to execute",
          "signature": "The user's signature for the spend permission",
          "spendPermission": "The spend permission struct",
          "user": "The user whose SIP is being executed"
        }
      }
    },
    "title": "LumoContract",
    "version": 1
  },
  "userdoc": {
    "kind": "user",
    "methods": {
      "cancelPlan(uint256)": {
        "notice": "Cancel a SIP plan"
      },
      "createSIPPlan(uint256,uint256,uint8,uint8,uint8)": {
        "notice": "Create a new SIP plan for a user"
      },
      "depositDirect(uint256)": {
        "notice": "Execute a deposit with direct ETH transfer (for users who send ETH directly)"
      },
      "executeDeposit(address,uint256,(address,address,address,uint160,uint48,uint48,uint48,uint256,bytes),bytes,uint160)": {
        "notice": "Execute a deposit for a user's SIP plan using spend permission"
      },
      "getPlan(address,uint256)": {
        "notice": "Get a user's SIP plan"
      },
      "getUserPlanIds(address)": {
        "notice": "Get all plan IDs for a user"
      },
      "pausePlan(uint256)": {
        "notice": "Pause a SIP plan"
      },
      "resumePlan(uint256)": {
        "notice": "Resume a paused SIP plan"
      },
      "setSpendPermissionManager(address)": {
        "notice": "Update the SpendPermissionManager address"
      },
      "transferOwnership(address)": {
        "notice": "Transfer ownership"
      }
    },
    "notice": "Main contract for Lumo SIP (Systematic Investment Plan) DeFi automation",
    "version": 1
  },
  "storageLayout": {
    "storage": [
      {
        "astId": 35,
        "contract": "contracts/LumoContract.sol:LumoContract",
        "label": "userPlans",
        "offset": 0,
        "slot": "0",
        "type": "t_mapping(t_address,t_mapping(t_uint256,t_struct(SIPPlan)28_storage))"
      },
      {
        "astId": 40,
        "contract": "contracts/LumoContract.sol:LumoContract",
        "label": "userPlanIds",
        "offset": 0,
        "slot": "1",
        "type": "t_mapping(t_address,t_array(t_uint256)dyn_storage)"
      },
      {
        "astId": 42,
        "contract": "contracts/LumoContract.sol:LumoContract",
        "label": "aave",
        "offset": 0,
        "slot": "2",
        "type": "t_address"
      },
      {
        "astId": 44,
        "contract": "contracts/LumoContract.sol:LumoContract",
        "label": "compound",
        "offset": 0,
        "slot": "3",
        "type": "t_address"
      },
      {
        "astId": 46,
        "contract": "contracts/LumoContract.sol:LumoContract",
        "label": "uniswap",
        "offset": 0,
        "slot": "4",
        "type": "t_address"
      },
      {
        "astId": 48,
        "contract": "contracts/LumoContract.sol:LumoContract",
        "label": "owner",
        "offset": 0,
        "slot": "5",
        "type": "t_address"
      },
      {
        "astId": 51,
        "contract": "contracts/LumoContract.sol:LumoContract",
        "label": "spendPermissionManager",
        "offset": 0,
        "slot": "6",
        "type": "t_contract(ISpendPermissionManager)801"
      }
    ],
    "types": {
      "t_address": {
        "encoding": "inplace",
        "label": "address",
        "numberOfBytes": "20"
      },
      "t_array(t_uint256)dyn_storage": {
        "base": "t_uint256",
        "encoding": "dynamic_array",
        "label": "uint256[]",
        "numberOfBytes": "32"
      },
      "t_bool": {
        "encoding": "inplace",
        "label": "bool",
        "numberOfBytes": "1"
      },
      "t_contract(ISpendPermissionManager)801": {
        "encoding": "inplace",
        "label": "contract ISpendPermissionManager",
        "numberOfBytes": "20"
      },
      "t_mapping(t_address,t_array(t_uint256)dyn_storage)": {
        "encoding": "mapping",
        "key": "t_address",
        "label": "mapping(address => uint256[])",
        "numberOfBytes": "32",
        "value": "t_array(t_uint256)dyn_storage"
      },
      "t_mapping(t_address,t_mapping(t_uint256,t_struct(SIPPlan)28_storage))": {
        "encoding": "mapping",
        "key": "t_address",
        "label": "mapping(address => mapping(uint256 => struct LumoContract.SIPPlan))",
        "numberOfBytes": "32",
        "value": "t_mapping(t_uint256,t_struct(SIPPlan)28_storage)"
      },
      "t_mapping(t_uint256,t_struct(SIPPlan)28_storage)": {
        "encoding": "mapping",
        "key": "t_uint256",
        "label": "mapping(uint256 => struct LumoContract.SIPPlan)",
        "numberOfBytes": "32",
        "value": "t_struct(SIPPlan)28_storage"
      },
      "t_struct(SIPPlan)28_storage": {
        "encoding": "inplace",
        "label": "struct LumoContract.SIPPlan",
        "members": [
          {
            "astId": 12,
            "contract": "contracts/LumoContract.sol:LumoContract",
            "label": "user",
            "offset": 0,
            "slot": "0",
            "type": "t_address"
          },
          {
            "astId": 14,
            "contract": "contracts/LumoContract.sol:LumoContract",
            "label": "planId",
            "offset": 0,
            "slot": "1",
            "type": "t_uint256"
          },
          {
            "astId": 16,
            "contract": "contracts/LumoContract.sol:LumoContract",
            "label": "monthlyAmount",
            "offset": 0,
            "slot": "2",
            "type": "t_uint256"
          },
          {
            "astId": 19,
            "contract": "contracts/LumoContract.sol:LumoContract",
            "label": "strategy",
            "offset": 0,
            "slot": "3",
            "type": "t_struct(Strategy)10_storage"
          },
          {
            "astId": 21,
            "contract": "contracts/LumoContract.sol:LumoContract",
            "label": "totalDeposited",
            "offset": 0,
            "slot": "4",
            "type": "t_uint256"
          },
          {
            "astId": 23,
            "contract": "contracts/LumoContract.sol:LumoContract",
            "label": "lastDepositTime",
            "offset": 0,
            "slot": "5",
            "type": "t_uint256"
          },
          {
            "astId": 25,
            "contract": "contracts/LumoContract.sol:LumoContract",
            "label": "createdAt",
            "offset": 0,
            "slot": "6",
            "type": "t_uint256"
          },
          {
            "astId": 27,
            "contract": "contracts/LumoContract.sol:LumoContract",
            "label": "active",
            "offset": 0,
            "slot": "7",
            "type": "t_bool"
          }
        ],
        "numberOfBytes": "256"
      },
      "t_struct(Strategy)10_storage": {
        "encoding": "inplace",
        "label": "struct LumoContract.Strategy",
        "members": [
          {
            "astId": 5,
            "contract": "contracts/LumoContract.sol:LumoContract",
            "label": "aavePercent",
            "offset": 0,
            "slot": "0",
            "type": "t_uint8"
          },
          {
            "astId": 7,
            "contract": "contracts/LumoContract.sol:LumoContract",
            "label": "compoundPercent",
            "offset": 1,
            "slot": "0",
            "type": "t_uint8"
          },
          {
            "astId": 9,
            "contract": "contracts/LumoContract.sol:LumoContract",
            "label": "uniswapPercent",
            "offset": 2,
            "slot": "0",
            "type": "t_uint8"
          }
        ],
        "numberOfBytes": "32"
      },
      "t_uint256": {
        "encoding": "inplace",
        "label": "uint256",
        "numberOfBytes": "32"
      },
      "t_uint8": {
        "encoding": "inplace",
        "label": "uint8",
        "numberOfBytes": "1"
      }
    }
  }
}