{
  "address": "0x85f0De2CC7b9307F3866b4bb3cCd3D0204f3Ac74",
  "abi": [
    {
      "inputs": [
        {
          "internalType": "address",
          "name": "_aave",
          "type": "address"
        },
        {
          "internalType": "address",
          "name": "_compound",
          "type": "address"
        },
        {
          "internalType": "address",
          "name": "_uniswap",
          "type": "address"
        }
      ],
      "stateMutability": "nonpayable",
      "type": "constructor"
    },
    {
      "anonymous": false,
      "inputs": [
        {
          "indexed": true,
          "internalType": "address",
          "name": "user",
          "type": "address"
        },
        {
          "indexed": false,
          "internalType": "uint256",
          "name": "amount",
          "type": "uint256"
        }
      ],
      "name": "DepositExecuted",
      "type": "event"
    },
    {
      "anonymous": false,
      "inputs": [
        {
          "indexed": true,
          "internalType": "address",
          "name": "protocol",
          "type": "address"
        },
        {
          "indexed": false,
          "internalType": "uint256",
          "name": "amount",
          "type": "uint256"
        }
      ],
      "name": "FundsAllocated",
      "type": "event"
    },
    {
      "anonymous": false,
      "inputs": [
        {
          "indexed": true,
          "internalType": "address",
          "name": "user",
          "type": "address"
        },
        {
          "indexed": false,
          "internalType": "uint256",
          "name": "refundAmount",
          "type": "uint256"
        }
      ],
      "name": "PlanCancelled",
      "type": "event"
    },
    {
      "anonymous": false,
      "inputs": [
        {
          "indexed": true,
          "internalType": "address",
          "name": "user",
          "type": "address"
        }
      ],
      "name": "PlanPaused",
      "type": "event"
    },
    {
      "anonymous": false,
      "inputs": [
        {
          "indexed": true,
          "internalType": "address",
          "name": "user",
          "type": "address"
        }
      ],
      "name": "PlanResumed",
      "type": "event"
    },
    {
      "anonymous": false,
      "inputs": [
        {
          "indexed": true,
          "internalType": "address",
          "name": "user",
          "type": "address"
        },
        {
          "indexed": false,
          "internalType": "uint256",
          "name": "totalAmount",
          "type": "uint256"
        },
        {
          "indexed": false,
          "internalType": "uint256",
          "name": "duration",
          "type": "uint256"
        }
      ],
      "name": "SIPCreated",
      "type": "event"
    },
    {
      "inputs": [],
      "name": "aave",
      "outputs": [
        {
          "internalType": "address",
          "name": "",
          "type": "address"
        }
      ],
      "stateMutability": "view",
      "type": "function"
    },
    {
      "inputs": [],
      "name": "cancelPlan",
      "outputs": [],
      "stateMutability": "nonpayable",
      "type": "function"
    },
    {
      "inputs": [],
      "name": "compound",
      "outputs": [
        {
          "internalType": "address",
          "name": "",
          "type": "address"
        }
      ],
      "stateMutability": "view",
      "type": "function"
    },
    {
      "inputs": [
        {
          "internalType": "uint256",
          "name": "totalAmount",
          "type": "uint256"
        },
        {
          "internalType": "uint256",
          "name": "monthlyAmount",
          "type": "uint256"
        },
        {
          "internalType": "uint256",
          "name": "duration",
          "type": "uint256"
        },
        {
          "internalType": "uint8",
          "name": "aavePercent",
          "type": "uint8"
        },
        {
          "internalType": "uint8",
          "name": "compoundPercent",
          "type": "uint8"
        },
        {
          "internalType": "uint8",
          "name": "uniswapPercent",
          "type": "uint8"
        }
      ],
      "name": "createSIPPlan",
      "outputs": [],
      "stateMutability": "payable",
      "type": "function"
    },
    {
      "inputs": [
        {
          "internalType": "address",
          "name": "user",
          "type": "address"
        }
      ],
      "name": "getPlan",
      "outputs": [
        {
          "components": [
            {
              "internalType": "address",
              "name": "user",
              "type": "address"
            },
            {
              "internalType": "uint256",
              "name": "totalAmount",
              "type": "uint256"
            },
            {
              "internalType": "uint256",
              "name": "monthlyAmount",
              "type": "uint256"
            },
            {
              "internalType": "uint256",
              "name": "duration",
              "type": "uint256"
            },
            {
              "components": [
                {
                  "internalType": "uint8",
                  "name": "aavePercent",
                  "type": "uint8"
                },
                {
                  "internalType": "uint8",
                  "name": "compoundPercent",
                  "type": "uint8"
                },
                {
                  "internalType": "uint8",
                  "name": "uniswapPercent",
                  "type": "uint8"
                }
              ],
              "internalType": "struct LumoContract.Strategy",
              "name": "strategy",
              "type": "tuple"
            },
            {
              "internalType": "uint256",
              "name": "deposited",
              "type": "uint256"
            },
            {
              "internalType": "uint256",
              "name": "createdAt",
              "type": "uint256"
            },
            {
              "internalType": "bool",
              "name": "active",
              "type": "bool"
            }
          ],
          "internalType": "struct LumoContract.SIPPlan",
          "name": "",
          "type": "tuple"
        }
      ],
      "stateMutability": "view",
      "type": "function"
    },
    {
      "inputs": [],
      "name": "owner",
      "outputs": [
        {
          "internalType": "address",
          "name": "",
          "type": "address"
        }
      ],
      "stateMutability": "view",
      "type": "function"
    },
    {
      "inputs": [],
      "name": "pausePlan",
      "outputs": [],
      "stateMutability": "nonpayable",
      "type": "function"
    },
    {
      "inputs": [],
      "name": "resumePlan",
      "outputs": [],
      "stateMutability": "nonpayable",
      "type": "function"
    },
    {
      "inputs": [],
      "name": "uniswap",
      "outputs": [
        {
          "internalType": "address",
          "name": "",
          "type": "address"
        }
      ],
      "stateMutability": "view",
      "type": "function"
    },
    {
      "inputs": [
        {
          "internalType": "address",
          "name": "",
          "type": "address"
        }
      ],
      "name": "userPlans",
      "outputs": [
        {
          "internalType": "address",
          "name": "user",
          "type": "address"
        },
        {
          "internalType": "uint256",
          "name": "totalAmount",
          "type": "uint256"
        },
        {
          "internalType": "uint256",
          "name": "monthlyAmount",
          "type": "uint256"
        },
        {
          "internalType": "uint256",
          "name": "duration",
          "type": "uint256"
        },
        {
          "components": [
            {
              "internalType": "uint8",
              "name": "aavePercent",
              "type": "uint8"
            },
            {
              "internalType": "uint8",
              "name": "compoundPercent",
              "type": "uint8"
            },
            {
              "internalType": "uint8",
              "name": "uniswapPercent",
              "type": "uint8"
            }
          ],
          "internalType": "struct LumoContract.Strategy",
          "name": "strategy",
          "type": "tuple"
        },
        {
          "internalType": "uint256",
          "name": "deposited",
          "type": "uint256"
        },
        {
          "internalType": "uint256",
          "name": "createdAt",
          "type": "uint256"
        },
        {
          "internalType": "bool",
          "name": "active",
          "type": "bool"
        }
      ],
      "stateMutability": "view",
      "type": "function"
    },
    {
      "stateMutability": "payable",
      "type": "receive"
    }
  ],
  "transactionHash": "0xf22b353ee36406b46d0da0e49ecf5c16c1e9fb0cc5f170ff783a903e50dbac32",
  "args": [
    "0xF2182c3A96C755E07205B49C2C7B12e6db1f21F9",
    "0x6f42dC74Cc3e75DcAE41aC8690738c86cD503923",
    "0x3598e6e6b02adfd911EB830De01D23aF083AF1A1"
  ],
  "numDeployments": 1,
  "solcInputHash": "c0391dd37ecfdfca2b1a1e7574a06aa2",
  "bytecode": "0x608060405234801561001057600080fd5b50604051610efb380380610efb83398101604081905261002f9161009a565b600180546001600160a01b039485166001600160a01b031991821617909155600280549385169382169390931790925560038054919093169082161790915560048054909116331790556100dd565b80516001600160a01b038116811461009557600080fd5b919050565b6000806000606084860312156100af57600080fd5b6100b88461007e565b92506100c66020850161007e565b91506100d46040850161007e565b90509250925092565b610e0f806100ec6000396000f3fe6080604052600436106100955760003560e01c8063819faf7b11610059578063819faf7b1461023b5780638da5cb5b1461025b578063f69e20461461027b578063f75b4ddd1461029b578063f821e1ab146102b057600080fd5b80632681f7e4146100a15780633af3be64146100de57806346c50121146100f357806350b61bc1146101085780637cb22aaf1461020e57600080fd5b3661009c57005b600080fd5b3480156100ad57600080fd5b506003546100c1906001600160a01b031681565b6040516001600160a01b0390911681526020015b60405180910390f35b6100f16100ec366004610c15565b6102c5565b005b3480156100ff57600080fd5b506100f1610579565b34801561011457600080fd5b5061019f610123366004610c74565b6000602081815291815260409081902080546001820154600283015460038401548551606081018752600486015460ff80821683526101008204811699830199909952620100009004881696810196909652600585015460068601546007909601546001600160a01b0390951697939692959194929390921688565b604080516001600160a01b0390991689526020808a0198909852888101969096526060880194909452825160ff908116608089015295830151861660a0880152919093015190931660c085015260e08401919091526101008301919091521515610120820152610140016100d5565b34801561021a57600080fd5b5061022e610229366004610c74565b610659565b6040516100d59190610ca4565b34801561024757600080fd5b506001546100c1906001600160a01b031681565b34801561026757600080fd5b506004546100c1906001600160a01b031681565b34801561028757600080fd5b506002546100c1906001600160a01b031681565b3480156102a757600080fd5b506100f1610762565b3480156102bc57600080fd5b506100f16107da565b8534146103195760405162461bcd60e51b815260206004820152601760248201527f53656e6420636f72726563742045544820616d6f756e7400000000000000000060448201526064015b60405180910390fd5b858511156103695760405162461bcd60e51b815260206004820152601c60248201527f4d6f6e74686c7920616d6f756e74206578636565647320746f74616c000000006044820152606401610310565b806103748385610d46565b61037e9190610d46565b60ff166064146103d05760405162461bcd60e51b815260206004820152601860248201527f50657263656e7473206d7573742073756d20746f2031303000000000000000006044820152606401610310565b3360009081526020819052604090206007015460ff16156104295760405162461bcd60e51b8152602060048201526013602482015272506c616e20616c72656164792065786973747360681b6044820152606401610310565b604080516060808201835260ff86811683528581166020808501919091528582168486015284516101008082018752338083528284018e81528389018e81529684018d815260808501898152600060a087018181524260c08901908152600160e08a01818152888552848c52938f902099518a546001600160a01b0319166001600160a01b03909116178a559551958901959095559951600288015591516003870155518051600487018054838a0151938e0151928b1661ffff1990911617928a169096029190911762ff00001916620100009190981602969096179092559451600583015551600682015591516007909201805460ff19169215159290921790915583518a8152908101889052919290917f1bd96959e90b965ecd58bac046f8d20f293cf639656f8987da258ccffc324361910160405180910390a26105703388610847565b50505050505050565b336000908152602081905260409020600781015460ff16156105d35760405162461bcd60e51b8152602060048201526013602482015272506c616e20616c72656164792061637469766560681b6044820152606401610310565b80546001600160a01b0316331461061c5760405162461bcd60e51b815260206004820152600d60248201526c139bc81c1b185b88199bdd5b99609a1b6044820152606401610310565b60078101805460ff1916600117905560405133907fa351aa6b447b864d6584b25aaa08b8342a9f7e118a0f73f762a341d4a4865ff090600090a250565b6106b960408051610100810182526000808252602080830182905282840182905260608084018390528451908101855282815290810182905292830152906080820190815260200160008152602001600081526020016000151581525090565b506001600160a01b03908116600090815260208181526040918290208251610100808201855282549095168152600182015481840152600282015481850152600382015460608083019190915284519081018552600483015460ff8082168352968104871694820194909452620100009093048516938301939093526080830191909152600581015460a0830152600681015460c083015260070154909116151560e082015290565b336000908152602081905260409020600781015460ff166107955760405162461bcd60e51b815260040161031090610d65565b60078101805460ff191690556040516000815233907f3ee9ca28321072883626157ba61d1c97dbb201875f5b65ab4d78f77fc316a31c9060200160405180910390a250565b336000908152602081905260409020600781015460ff1661080d5760405162461bcd60e51b815260040161031090610d65565b60078101805460ff1916905560405133907f0cb4de5ffdedd9dec2af4e11b70186c597f68399bb16c7ce622b73a73d3691ea90600090a250565b6001600160a01b0382166000908152602081905260409020600781015460ff166108835760405162461bcd60e51b815260040161031090610d65565b600481015460009060649061089b9060ff1685610d8d565b6108a59190610da4565b60048301549091506000906064906108c590610100900460ff1686610d8d565b6108cf9190610da4565b60048401549091506000906064906108f09062010000900460ff1687610d8d565b6108fa9190610da4565b6001546040519192506000916001600160a01b039091169085908381818185875af1925050503d806000811461094c576040519150601f19603f3d011682016040523d82523d6000602084013e610951565b606091505b50509050806109985760405162461bcd60e51b815260206004820152601360248201527210585d994819195c1bdcda5d0819985a5b1959606a1b6044820152606401610310565b6001546040518581526001600160a01b03909116907f870f86672db2c7b197484fa0218e97fe38eb7c89fd39ed2c4c910734c66182f89060200160405180910390a26002546040516000916001600160a01b03169085908381818185875af1925050503d8060008114610a27576040519150601f19603f3d011682016040523d82523d6000602084013e610a2c565b606091505b5050905080610a7d5760405162461bcd60e51b815260206004820152601760248201527f436f6d706f756e64206465706f736974206661696c65640000000000000000006044820152606401610310565b6002546040518581526001600160a01b03909116907f870f86672db2c7b197484fa0218e97fe38eb7c89fd39ed2c4c910734c66182f89060200160405180910390a26003546040516000916001600160a01b03169085908381818185875af1925050503d8060008114610b0c576040519150601f19603f3d011682016040523d82523d6000602084013e610b11565b606091505b5050905080610b5b5760405162461bcd60e51b8152602060048201526016602482015275155b9a5cddd85c0819195c1bdcda5d0819985a5b195960521b6044820152606401610310565b6003546040518581526001600160a01b03909116907f870f86672db2c7b197484fa0218e97fe38eb7c89fd39ed2c4c910734c66182f89060200160405180910390a287876005016000828254610bb19190610dc6565b90915550506040518881526001600160a01b038a16907fb631da01970acb54913c65493e64f776e136bf2d15f6d3c10a949660d552039c9060200160405180910390a2505050505050505050565b803560ff81168114610c1057600080fd5b919050565b60008060008060008060c08789031215610c2e57600080fd5b863595506020870135945060408701359350610c4c60608801610bff565b9250610c5a60808801610bff565b9150610c6860a08801610bff565b90509295509295509295565b600060208284031215610c8657600080fd5b81356001600160a01b0381168114610c9d57600080fd5b9392505050565b81516001600160a01b03168152602080830151908201526040808301519082015260608083015190820152608080830151610140830191610d079084018260ff815116825260ff602082015116602083015260ff60408201511660408301525050565b5060a083015160e083015260c083015161010083015260e0830151151561012083015292915050565b634e487b7160e01b600052601160045260246000fd5b60ff8181168382160190811115610d5f57610d5f610d30565b92915050565b6020808252600e908201526d27379030b1ba34bb3290383630b760911b604082015260600190565b8082028115828204841417610d5f57610d5f610d30565b600082610dc157634e487b7160e01b600052601260045260246000fd5b500490565b80820180821115610d5f57610d5f610d3056fea26469706673582212200740e5c9f1f4a1e400c6c53fae68e0ec91a3c488122257b54bddf811841037fd64736f6c63430008140033",
  "devdoc": {
    "kind": "dev",
    "methods": {},
    "version": 1
  },
  "userdoc": {
    "kind": "user",
    "methods": {},
    "version": 1
  },
  "storageLayout": {
    "storage": [
      {
        "astId": 31,
        "contract": "contracts/LumoContract.sol:LumoContract",
        "label": "userPlans",
        "offset": 0,
        "slot": "0",
        "type": "t_mapping(t_address,t_struct(SIPPlan)26_storage)"
      },
      {
        "astId": 33,
        "contract": "contracts/LumoContract.sol:LumoContract",
        "label": "aave",
        "offset": 0,
        "slot": "1",
        "type": "t_address"
      },
      {
        "astId": 35,
        "contract": "contracts/LumoContract.sol:LumoContract",
        "label": "compound",
        "offset": 0,
        "slot": "2",
        "type": "t_address"
      },
      {
        "astId": 37,
        "contract": "contracts/LumoContract.sol:LumoContract",
        "label": "uniswap",
        "offset": 0,
        "slot": "3",
        "type": "t_address"
      },
      {
        "astId": 39,
        "contract": "contracts/LumoContract.sol:LumoContract",
        "label": "owner",
        "offset": 0,
        "slot": "4",
        "type": "t_address"
      }
    ],
    "types": {
      "t_address": {
        "encoding": "inplace",
        "label": "address",
        "numberOfBytes": "20"
      },
      "t_bool": {
        "encoding": "inplace",
        "label": "bool",
        "numberOfBytes": "1"
      },
      "t_mapping(t_address,t_struct(SIPPlan)26_storage)": {
        "encoding": "mapping",
        "key": "t_address",
        "label": "mapping(address => struct LumoContract.SIPPlan)",
        "numberOfBytes": "32",
        "value": "t_struct(SIPPlan)26_storage"
      },
      "t_struct(SIPPlan)26_storage": {
        "encoding": "inplace",
        "label": "struct LumoContract.SIPPlan",
        "members": [
          {
            "astId": 10,
            "contract": "contracts/LumoContract.sol:LumoContract",
            "label": "user",
            "offset": 0,
            "slot": "0",
            "type": "t_address"
          },
          {
            "astId": 12,
            "contract": "contracts/LumoContract.sol:LumoContract",
            "label": "totalAmount",
            "offset": 0,
            "slot": "1",
            "type": "t_uint256"
          },
          {
            "astId": 14,
            "contract": "contracts/LumoContract.sol:LumoContract",
            "label": "monthlyAmount",
            "offset": 0,
            "slot": "2",
            "type": "t_uint256"
          },
          {
            "astId": 16,
            "contract": "contracts/LumoContract.sol:LumoContract",
            "label": "duration",
            "offset": 0,
            "slot": "3",
            "type": "t_uint256"
          },
          {
            "astId": 19,
            "contract": "contracts/LumoContract.sol:LumoContract",
            "label": "strategy",
            "offset": 0,
            "slot": "4",
            "type": "t_struct(Strategy)8_storage"
          },
          {
            "astId": 21,
            "contract": "contracts/LumoContract.sol:LumoContract",
            "label": "deposited",
            "offset": 0,
            "slot": "5",
            "type": "t_uint256"
          },
          {
            "astId": 23,
            "contract": "contracts/LumoContract.sol:LumoContract",
            "label": "createdAt",
            "offset": 0,
            "slot": "6",
            "type": "t_uint256"
          },
          {
            "astId": 25,
            "contract": "contracts/LumoContract.sol:LumoContract",
            "label": "active",
            "offset": 0,
            "slot": "7",
            "type": "t_bool"
          }
        ],
        "numberOfBytes": "256"
      },
      "t_struct(Strategy)8_storage": {
        "encoding": "inplace",
        "label": "struct LumoContract.Strategy",
        "members": [
          {
            "astId": 3,
            "contract": "contracts/LumoContract.sol:LumoContract",
            "label": "aavePercent",
            "offset": 0,
            "slot": "0",
            "type": "t_uint8"
          },
          {
            "astId": 5,
            "contract": "contracts/LumoContract.sol:LumoContract",
            "label": "compoundPercent",
            "offset": 1,
            "slot": "0",
            "type": "t_uint8"
          },
          {
            "astId": 7,
            "contract": "contracts/LumoContract.sol:LumoContract",
            "label": "uniswapPercent",
            "offset": 2,
            "slot": "0",
            "type": "t_uint8"
          }
        ],
        "numberOfBytes": "32"
      },
      "t_uint256": {
        "encoding": "inplace",
        "label": "uint256",
        "numberOfBytes": "32"
      },
      "t_uint8": {
        "encoding": "inplace",
        "label": "uint8",
        "numberOfBytes": "1"
      }
    }
  }
}